:100000000C9490000C9442070C9469070C94B8006F
:100010000C94B8000C94B8000C94B8000C94B80080
:100020000C94B8000C94B8000C94B8000C94B80070
:100030000C94B8000C94B8000C94B8000C94B80060
:100040000C9490070C94B8000C94E20A0C94140BD6
:100050000C94B8000C94B8000C94B8000C94B80040
:100060000C94B8000C94B80008000000BE9224491B
:10007000123EABAAAA2ABECDCCCC4C3E00000080DA
:10008000BEABAAAAAA3E00000000BF000000803F4D
:100090000000000000084178D3BB4387D1133D190D
:1000A0000E3CC3BD4282AD2B3E68EC8276BED98F3A
:1000B000E1A93E4C80EFFFBE01C4FF7F3F0000007E
:1000C0000000000000080002010000030407000017
:1000D000000000000000010204081020408001021E
:1000E000040810200102040810200404040404047D
:1000F00004040202020202020303030303030000DA
:100100000000230026002900000000002500280030
:100110002B0000000000240027002A000105440BEA
:1001200011241FBECFEFD8E0DEBFCDBF11E0A0E0AD
:10013000B1E0E6E4F1E202C005900D92A636B10707
:10014000D9F722E0A6E6B1E001C01D92A733B207BD
:10015000E1F711E0C0E2D1E004C02297FE010E9465
:100160009D10CC31D107C9F70E94880B0C94A110C7
:100170000C9400000F931F930E94DA070091700106
:10018000109171012091720130917301601B710B0C
:10019000820B930B683C710581059105B0F080914D
:1001A0007501909176010196909376018093750187
:1001B00081E0809374010E94DA076093700170936C
:1001C000710180937201909373011F910F910895B3
:1001D0001F93CF93DF9361E08BE00E942E0961E0D3
:1001E0008AE00E942E0961E089E00E942E096FEAF0
:1001F00070E089E00E94A608CDE3D1E01881229644
:1002000061E0812F0E942E0960E0812F0E94670922
:1002100081E0C534D80791F762E083E00E942E099F
:1002200061E082E00E942E0960E082E00E9467099E
:1002300026E040E855E260E070E08AE991E00E9443
:10024000800A8FE791E00E94290540E050E06AEBC8
:1002500070E081E0DF91CF911F910C9422078EE432
:1002600080937C0062E070E080E090E00E940908EA
:1002700080917A00806480937A0080917A0086FD74
:10028000FCCF809178002091790030E0322F222736
:10029000442737FD4095542F282B64EB7BE281E106
:1002A00090E00E946810CA01B90108958F929F9250
:1002B000AF92BF92CF92DF92EF92FF920E942F01F6
:1002C0000E949F0E20E030E04AE754E40E94040EB2
:1002D0004B015C018EE00E948908BC01882777FDF4
:1002E0008095982F0E949F0E9B01AC01C501B4011F
:1002F0000E94980F20E030EC4FE754E40E94040E77
:100300006B017C01A50194010E949B0D9B01AC0136
:10031000C701B6010E94040E20E030EE42E955EC20
:100320000E94980F20E030EE42E955E40E94040E4E
:100330000E94580F2CE23BEB44E859E30E94980FCF
:1003400022E63BEE4BE55BE30E949C0D9B01AC017A
:1003500060E070E080E89FE30E94040E20E030E857
:100360004AE853E40E949B0DFF90EF90DF90CF90FE
:10037000BF90AF909F908F9008956F927F928F92D1
:100380009F92AF92BF92CF92DF92EF92FF920F9324
:100390001F93CF93DF9300D0CDB7DEB73C016B0145
:1003A0004B01880C991C8C0C9D1C80916601873632
:1003B00021F14CF48236B9F0833629F50BE410E0D4
:1003C00026E930E017C0823749F08937E1F400E0D0
:1003D00010E024E630E04FEF50E015C000E010E000
:1003E00020E030E007C008EC10E024E630E042E313
:1003F00050E009C048EC50E006C000E010E028ECF6
:1004000030E040E050E0BA0188E029833A830E945E
:10041000A60829813A81B90186E00E94A608B801A0
:1004200085E00E94A60800E010E0EE24D7FCE094EE
:10043000FE2CAA2497FCA094BA2C061517059CF450
:1004400060E087E00E946709C701B6010E940908C1
:1004500061E087E00E946709C501B4010E940908B4
:100460000F5F1F4FEACF0F900F90DF91CF911F9139
:100470000F91FF90EF90DF90CF90BF90AF909F9043
:100480008F907F906F90089560E08FE791E00E94D9
:10049000DB0620E030E040E351E40E949C0D0E9426
:1004A0006C0E70937A016093790140E060E08FE711
:1004B00091E00E947B0620E030E040E85FE30E948C
:1004C0009C0D0E946C0E70937801609377010E94DE
:1004D000560160937B0170937C0180937D01909322
:1004E0007E010895CF93DF938091770190917801F9
:1004F0008333910514F482E606C0C397049710F481
:1005000089E701C082E78093660160917B01709169
:100510007C0180917D0190917E010E946C0ECAE069
:10052000D0E0CB01BE010E943210CB0164E670E046
:100530000E94BD0168EE73E080E090E00E9409082F
:1005400060917B0170917C0180917D0190917E0191
:100550000E946C0ECB01BE010E94321064E670E076
:10056000DF91CF910C94BD01CF93DF9383E680930D
:1005700066018091020190910301CAE0D0E0BE01C2
:100580000E943210CB0164E670E00E94BD0168EE6B
:1005900073E080E090E00E94090880910201909150
:1005A0000301BE010E94321064E670E00E94BD01AA
:1005B00060ED77E080E090E00E9409088091000102
:1005C00090910101BE010E943210CB0164E670E0FF
:1005D0000E94BD0168EE73E080E090E00E9409088F
:1005E0008091000190910101BE010E94321064E6E9
:1005F00070E0DF91CF910C94BD0180916B0181116E
:1006000002C087E601C082E78093660168EE73E06E
:1006100081E090E00C94BD01CF92DF92EF92FF92C7
:10062000C0907B01D0907C01E0907D01F0907E0134
:1006300020E030E048E552E4C701B6010E944F0FC8
:1006400018164CF4809102019091030187349105B2
:1006500014F4059612C020E030E048E352E4C701EC
:10066000B6010E94000E18166CF080910201909164
:1006700003018530910534F0059790930301809331
:1006800002010EC020E030E048EC51E4C701B601A1
:100690000E94000E87FF04C0109203011092020115
:1006A00020917701309178018091000190910101B2
:1006B000213331053CF44091790150917A014D3359
:1006C00051057CF08734910514F405960EC0213352
:1006D00031053CF02091790130917A0129323105C0
:1006E00044F4853091052CF0059790930101809397
:1006F0000001FF90EF90DF90CF900895CF93DF93AC
:1007000068EC70E088E00E94A60866E970E086E088
:100710000E94A6086BE470E085E00E94A60860E0F5
:1007200087E00E94670969E071E08AE991E00E9430
:10073000E20BC4EFD1E06AE070E080E090E00E945C
:1007400009082197C1F761E087E00E94670960E22C
:1007500073E080E090E00E94090880917401882392
:1007600029F180917501909176010697F9F48091B5
:100770006B0191E0892780936B01811102C087E6AC
:1007800001C082E78093660162E370E082E090E05E
:100790000E94BD0166E171E08AE991E00E94E20BEE
:1007A000109274011092760110927501DF91CF9131
:1007B0000895CF93DF9380917401882309F444C096
:1007C00064E271E08AE991E00E94E20BCCE2D1E0C0
:1007D0006AE070E080E090E00E9409082197C1F78C
:1007E00060917501709176014AE050E08AE991E0EC
:1007F0000E94950C8091750190917601823091054F
:1008000071F02CF4019789F40E94720217C08330B2
:10081000910541F0049749F40E947E030FC00E94A5
:10082000B4020CC00E94FD0209C082E780936601F9
:1008300064EF71E083E090E00E94BD0110927601C8
:100840001092750110927401DF91CF9108950F936A
:100850001F93CF930E94D9030E9444020E94DA079B
:1008600000916C0110916D0120916E0130916F012A
:10087000601B710B820B930B603C774289409105A2
:1008800090F00E94DA0760936C0170936D01809381
:100890006E0190936F010E940C036CE271E08AE993
:1008A00091E00E94E20B2091020130910301CFEF11
:1008B000C29FC001C39F900D112404E610E0B8014F
:1008C0000E9432108BE00E94A60820910001309116
:1008D0000101C29FC001C39F900D1124B8010E9465
:1008E00032108AE00E94A60880916B01811105C038
:1008F00080E097E9A9E4B1E004C080E09EE2A3E9CA
:10090000B2E08093670190936801A0936901B0936E
:100910006A010E94DA0720E03CE546E255E00E94C9
:100920004610009167011091680120916901309192
:100930006A01061717072807390710F461E001C09C
:1009400060E08DE00E9467096091020170910301EF
:100950004AE050E08AE991E00E948D0C65E371E085
:100960008AE991E00E94D50B60910001709101012C
:100970004AE050E08AE991E00E948D0C65E371E065
:100980008AE991E00E94D50B6091790170917A011A
:100990004AE050E08AE991E00E948D0C65E371E045
:1009A0008AE991E00E94D50B6091770170917801FE
:1009B0004AE050E08AE991E00E948D0C69E371E021
:1009C0008AE991E00E94D50B40917B0150917C0116
:1009D00060917D0170917E0122E030E08AE991E032
:1009E0000E94980D69E371E08AE991E00E94E20BB0
:1009F00060ED77E080E090E0CF911F910F910C9433
:100A0000090826E04BE06FE08FE791E00C940805C1
:100A1000DC0115966C93159716964C93169770E01B
:100A2000FB01EA52FF4FE4911796EC931797FB01F5
:100A3000E651FF4F649118966C93189740E85EE377
:100A400060E070E01D964D935D936D937C9350979D
:100A50000895CF93DF93EC0162E08D810E942E090F
:100A600040E358EF6FEF7FEF49875A876B877C87AA
:100A7000DF91CF910895AF92BF92CF92DF92EF9224
:100A8000FF920F931F93CF93DF93EC01AF80662308
:100A900011F0BA2C01C0B12CA885B0E0AA0FBB1F81
:100AA000A250BF4F40E050E0BA01FD018591949102
:100AB000FC0180818A218B1112C08A019B010F5F8A
:100AC0001F4F2F4F3F4FCD84DE84EF84F8884C15A5
:100AD0005D056E057F0538F4B901A801E6CF342F16
:100AE000252FCB0104C030E020E080E090E0632FB0
:100AF000722FDF91CF911F910F91FF90EF90DF90B8
:100B0000CF90BF90AF900895CF92DF92EF92FF9277
:100B10000F931F93CF93DF93CDB7DEB7C054D1406F
:100B20000FB6F894DEBF0FBECDBF8C01F62E0E942B
:100B3000DA07F11016C0F801C184D284E384F4848A
:100B40009B01AC012C193D094E095F0969017A012D
:100B500030EDC31637E0D306E104F10410F48189C7
:100B6000BAC0F801618772878387948714821382E1
:100B700012821182108261E085810E9467096AEF0A
:100B800070E080E090E00E94090861E0F801858152
:100B90000E942E0960E0F80185810E94670964E1E6
:100BA00070E080E090E00E940908F89461E0F801AC
:100BB00085810E94670988E290E00E94430862E014
:100BC000F80185810E942E098AE090E00E94430886
:100BD00060E0C8010E943B05672B682B692B41F040
:100BE00061E0C8010E943B05672B682B692B21F44B
:100BF000F801118A78946EC06E01FFEBCF1AFEEFF8
:100C0000DF0A9E012F5F3F4F790160E0C8010E941B
:100C10003B05F701608371838283938361E0C801A0
:100C20000E943B05F7016483758386839783F8E010
:100C3000EF0EF11CEC14FD0441F778949E012F5F38
:100C40003F4F790120E030E0F7014081518162811E
:100C5000738184819581A681B78141155105610514
:100C60007105B1F10097A105B10591F1F901F59573
:100C7000E795F595E795F595E795E00FF11FD0809D
:100C8000DD0C481759076A077B0710F0D08203C0B4
:100C90008D2D816080832F5F3F4FF8E0EF0EF11CB8
:100CA0002832310589F6F801248130E040818181C4
:100CB00090E0840F911D4281840F911D4381840F28
:100CC000911D99272817390719F481E0818B03C0FA
:100CD000F801118A80E0C05CDE4F0FB6F894DEBFE9
:100CE0000FBECDBFDF91CF911F910F91FF90EF907D
:100CF000DF90CF900895CF92DF92EF92FF920F9303
:100D00001F93CF93DF93EC01162F642F0E9484056D
:100D1000882309F443C08E818B3031F008F43EC043
:100D20008551823040F03AC06A8170E080E090E006
:100D30000E949D0E24C00A81602F6F7770E080E0D2
:100D400090E00E949F0E20E030E040E853E40E94D3
:100D5000980F6B017C016B8170E080E090E00E9455
:100D60009F0E9B01AC01C701B6010E949C0D2DECAA
:100D70003CEC4CEC5DE30E94980F07FD905811236A
:100D800089F026E636E646EE5FE30E94980F20E003
:100D900030E040E052E40E949C0D04C060E070E04E
:100DA00080EC9FE7DF91CF911F910F91FF90EF9023
:100DB000DF90CF900895CF92DF92EF92FF92CF9382
:100DC000DF93EC0160E00E948405882379F18E8135
:100DD0008B3029F158F18551823040F5688170E0FF
:100DE00080E090E00E949D0E20E030E040E853E477
:100DF0000E94980F6B017C01698170E080E090E0B7
:100E00000E949F0E9B01AC01C701B6010E949C0D80
:100E10002DEC3CEC4CEC5DE30E94980F0BC068811C
:100E200070E080E090E00E949D0E04C060E070E001
:100E300080EC9FE7DF91CF91FF90EF90DF90CF9014
:100E4000089508958230E8F4E82FF0E0EE0FFF1FD8
:100E5000EC5FFE4F71836083813041F080916900C7
:100E60008C7F842B80936900E89A089580916900B3
:100E7000440F551F440F551F837F842B80936900B7
:100E8000E99A08951F920F920FB60F9211242F9393
:100E90003F934F935F936F937F938F939F93AF9302
:100EA000BF93EF93FF93E0910401F0910501099541
:100EB000FF91EF91BF91AF919F918F917F916F9132
:100EC0005F914F913F912F910F900FBE0F901F9008
:100ED00018951F920F920FB60F9211242F933F93E4
:100EE0004F935F936F937F938F939F93AF93BF9332
:100EF000EF93FF93E0910601F09107010995FF91AF
:100F0000EF91BF91AF919F918F917F916F915F9181
:100F10004F913F912F910F900FBE0F901F901895FA
:100F20001F920F920FB60F9211242F933F938F931E
:100F30009F93AF93BF938091920190919301A09161
:100F40009401B09195013091910123E0230F2D3749
:100F500020F40196A11DB11D05C026E8230F0296BD
:100F6000A11DB11D20939101809392019093930153
:100F7000A0939401B093950180919601909197016F
:100F8000A0919801B09199010196A11DB11D809386
:100F9000960190939701A0939801B0939901BF9106
:100FA000AF919F918F913F912F910F900FBE0F9016
:100FB0001F9018952FB7F89460919201709193014A
:100FC00080919401909195012FBF08953FB7F894B7
:100FD0008091960190919701A0919801B09199010B
:100FE00026B5A89B05C02F3F19F00196A11DB11D84
:100FF0003FBF6627782F892F9A2F620F711D811DA1
:10100000911D42E0660F771F881F991F4A95D1F7FF
:1010100008958F929F92AF92BF92CF92DF92EF92FC
:10102000FF926B017C010E94E6074B015C01C11439
:10103000D104E104F104F1F00E949A0D0E94E60748
:10104000681979098A099B09683E734081059105F1
:1010500070F321E0C21AD108E108F10888EE880E89
:1010600083E0981EA11CB11CC114D104E104F10459
:1010700029F7DDCFFF90EF90DF90CF90BF90AF903A
:101080009F908F9008958230910538F0880F991FB6
:10109000880F991F05970197F1F70895789484B503
:1010A000826084BD84B5816084BD85B5826085BD64
:1010B00085B5816085BDEEE6F0E08081816080834A
:1010C000E1E8F0E01082808182608083808181602D
:1010D0008083E0E8F0E0808181608083E1EBF0E0F4
:1010E000808184608083E0EBF0E080818160808398
:1010F000EAE7F0E080818460808380818260808381
:101100008081816080838081806880831092C100AB
:1011100008958E3008F08E5087702091080190E479
:10112000299F90011124822B80937C0080917A006A
:10113000806480937A0080917A0086FDFCCF809154
:1011400078002091790090E0922B08951F93CF931F
:10115000DF93182FEB0161E00E942E09209711F414
:1011600060E004C0CF3FD10539F461E0812FDF9109
:10117000CF911F910C946709E12FF0E0EE53FF4FE0
:10118000E491E330F9F048F4E130B9F0E230A1F550
:1011900084B5806284BDC8BD34C0E730E9F0E83072
:1011A00019F1E43049F580918000806280938000DD
:1011B000D0938B00C0938A0024C084B5806884BD1E
:1011C000C7BD1FC080918000806880938000D0934D
:1011D0008900C093880015C08091B000806880931A
:1011E000B000C093B3000DC08091B00080628093C6
:1011F000B000C093B40005C0C038D1050CF0B5CF25
:10120000AFCFDF91CF911F910895833081F028F403
:10121000813099F08230A1F008958730A9F08830AC
:10122000B9F08430D1F4809180008F7D03C080912B
:1012300080008F7780938000089584B58F7702C0F7
:1012400084B58F7D84BD08958091B0008F7703C0F1
:101250008091B0008F7D8093B0000895CF93DF938D
:1012600090E0FC01EA52FF4F2491FC01E651FF4F50
:101270008491882349F190E0880F991FFC01EE5E6C
:10128000FE4FA591B491885F9E4FFC01C591D4910A
:101290009FB7611108C0F8948C91209582238C939C
:1012A000888182230AC0623051F4F8948C91322FE5
:1012B000309583238C938881822B888304C0F89493
:1012C0008C91822B8C939FBFDF91CF9108950F93C8
:1012D0001F93CF93DF931F92CDB7DEB7282F30E057
:1012E000F901EE53FF4F8491F901EA52FF4F149137
:1012F000F901E651FF4F04910023C9F0882321F042
:1013000069830E9405096981E02FF0E0EE0FFF1F5D
:10131000E85FFE4FA591B4919FB7F8948C9161114D
:1013200003C01095812301C0812B8C939FBF0F9028
:10133000DF91CF911F910F910895FC01818D228D36
:1013400090E0805C9F4F821B91098F7399270895CD
:10135000FC01918D828D981731F0828DE80FF11D7F
:10136000858D90E008958FEF9FEF0895FC01918D9A
:10137000828D981761F0828DDF01A80FB11D5D96F7
:101380008C91928D9F5F9F73928F90E008958FEF65
:101390009FEF08958AE39BE0892B49F080E090E07D
:1013A000892B29F00E943A0B81110C9400000895BA
:1013B000FC01848DDF01A80FB11DA35ABF4F2C91F2
:1013C000848D90E001968F739927848FA689B789C1
:1013D0002C93A089B1898C9180648C93938D848D9A
:1013E000981306C00288F389E02D80818F7D808369
:1013F0000895CF93DF93EC01888D8823C9F0EA89A3
:10140000FB89808185FD05C0A889B9898C9186FDFD
:101410000FC00FB607FCF5CF808185FFF2CFA889FA
:10142000B9898C9185FFEDCFCE010E94D809E7CF15
:10143000DF91CF910895CF92DF92FF920F931F9388
:10144000CF93DF931F92CDB7DEB76C0181E0D60159
:1014500058968C9358975B969C915B975C968C9171
:101460005C97981307C05096ED91FC91519780813D
:1014700085FD2EC0F601038D10E00F5F1F4F0F7327
:101480001127F02EF601848DF81211C00FB607FC5B
:10149000F9CFD6015096ED91FC915197808185FF4F
:1014A000F1CFC60169830E94D8096981EBCF838D92
:1014B000E80FF11DE35AFF4F6083D6015B960C9352
:1014C0005B975296ED91FC915397808180620CC09E
:1014D000D6015696ED91FC91579760835096ED9109
:1014E000FC91519780818064808381E090E00F902F
:1014F000DF91CF911F910F91FF90DF90CF900895D2
:10150000BF92CF92DF92EF92FF92CF93DF93EC01E5
:101510006A017B01B22EE889F98982E08083411556
:1015200081EE580761057105A1F060E079E08DE377
:1015300090E0A70196010E9446102150310941090F
:1015400051095695479537952795211580E138071C
:1015500098F0E889F989108260E874E88EE190E0FB
:10156000A70196010E9446102150310941095109F5
:101570005695479537952795EC85FD853083EE8503
:10158000FF852083188EEC89FD89B082EA89FB896A
:10159000808180618083EA89FB8980818860808383
:1015A000EA89FB89808180688083EA89FB89808160
:1015B0008F7D8083DF91CF91FF90EF90DF90CF9070
:1015C000BF9008951F920F920FB60F9211242F9380
:1015D0008F939F93EF93FF93E091AA01F091AB015A
:1015E0008081E091B001F091B10182FD12C0908143
:1015F0008091B3018F5F8F732091B401821751F0F6
:10160000E091B301F0E0E656FE4F958F8093B30171
:1016100001C08081FF91EF919F918F912F910F9049
:101620000FBE0F901F9018951F920F920FB60F923A
:1016300011242F933F934F935F936F937F938F93D7
:101640009F93AF93BF93EF93FF938AE991E00E943A
:10165000D809FF91EF91BF91AF919F918F917F91A9
:101660006F915F914F913F912F910F900FBE0F900F
:101670001F9018958AE991E00E949D0921E0892B2D
:1016800009F420E0822F089510929D0110929C0190
:1016900088EE93E0A0E0B0E080939E0190939F01DC
:1016A000A093A001B093A10189E491E090939B01E4
:1016B00080939A0185EC90E09093A7018093A60116
:1016C00084EC90E09093A9018093A80180EC90E0D5
:1016D0009093AB018093AA0181EC90E09093AD01CF
:1016E0008093AC0182EC90E09093AF018093AE01C7
:1016F00086EC90E09093B1018093B0011092B30119
:101700001092B4011092B5011092B6010895089597
:101710000E944E080E94870B0E94E800CAECD9E0A4
:101720000E9427042097E1F30E94CA09F9CFCF92C3
:10173000DF92EF92FF920F931F93CF93DF937C0181
:101740006A01EB0100E010E00C151D0571F06991D4
:10175000D701ED91FC910190F081E02DC701099531
:10176000892B19F00F5F1F4FEFCFC801DF91CF9189
:101770001F910F91FF90EF90DF90CF90089561152A
:10178000710581F0DB010D900020E9F7AD014150BA
:101790005109461B570BDC01ED91FC910280F3814E
:1017A000E02D099480E090E008950C94BF0BDC01DB
:1017B000ED91FC910190F081E02D099465E571E0D7
:1017C0000C94BF0B0F931F93CF93DF93EC010E94F8
:1017D000BF0B8C01CE010E94DE0B800F911FDF91A9
:1017E000CF911F910F9108958F929F92AF92BF92C8
:1017F000DF92EF92FF920F931F93CF93DF93CDB7BA
:10180000DEB7A1970FB6F894DEBF0FBECDBF7C0147
:10181000F42FD52ECB0119A2223008F42AE08E0134
:101820000F5D1F4F822E912CA12CB12C6F2F7D2D7F
:10183000A50194010E944610F22FD32ECA01015037
:1018400011096A3014F4E0E301C0E7E3E60FD801C0
:10185000EC93232B242B252B49F7B801C7010E94B9
:10186000BF0BA1960FB6F894DEBF0FBECDBFDF91C0
:10187000CF911F910F91FF90EF90DF90BF90AF90AD
:101880009F908F900895CF92DF92EF92FF920F93E7
:101890001F93CF93DF93EC016A017B012115310582
:1018A00079F4E881F9810190F081E02D642FDF91D6
:1018B000CF911F910F91FF90EF90DF90CF900994FF
:1018C0002A303105E9F477FF1AC06DE20E94D70B88
:1018D0008C0144275527BA014C195D096E097F090F
:1018E0002AE0CE010E94F40B800F911FDF91CF916F
:1018F0001F910F91FF90EF90DF90CF9008952AE015
:10190000B701A601CE01DF91CF911F910F91FF90FA
:10191000EF90DF90CF900C94F40B9A01AB01662707
:1019200057FD6095762F0C94430C0F931F93CF9324
:10193000DF93EC019A01AB01662757FD6095762F86
:101940000E94430C8C01CE010E94DE0B800F911F80
:10195000DF91CF911F910F9108954F925F926F92F7
:101960007F928F929F92AF92BF92CF92DF92EF922F
:10197000FF920F931F93CF93DF93EC016A017B01DA
:10198000B22E9A01AB01C701B6010E94FB0F88235A
:1019900019F068E571E027C026013701E89477F86F
:1019A0002FEF3FEF4FE75FE7C301B2010E94FB0F4C
:1019B00081110DC02FEF3FEF4FE75FE7C301B20189
:1019C0000E94000E18161CF46CE571E00CC02FEF9D
:1019D0003FEF4FE75FE4C701B6010E944F0F1816B3
:1019E000ACF460E671E0CE01DF91CF911F910F91D1
:1019F000FF90EF90DF90CF90BF90AF909F908F902F
:101A00007F906F905F904F900C94BF0B2FEF3FEF44
:101A10004FE75FECC701B6010E94000E87FDE1CFE2
:101A200020E030E0A901C701B6010E94000E87FF47
:101A30000AC06DE2CE010E94D70B8C01F7FAF09438
:101A4000F7F8F09402C000E010E0A12C60E070E034
:101A500080E09FE3AB1441F020E030E040E251E44D
:101A60000E94040EA394F6CF9B01AC01C701B601FE
:101A70000E949C0D6B017C010E94710E2B013C01A8
:101A80000E949D0E9B01AC01C701B6010E949B0DF7
:101A90006B017C012AE0B301A201CE010E94F40B8C
:101AA000080F191FBB2039F064E671E0CE010E94D7
:101AB000BF0B080F191F7B2C772041F120E030E08D
:101AC00040E251E4C701B6010E94980F6B017C010E
:101AD0000E946C0E4B01AA2497FCA094BA2C2AE019
:101AE00030E0B501A401CE010E94430C080F191F7C
:101AF000C501B4010E949F0E9B01AC01C701B60154
:101B00000E949B0D6B017C017A94D6CFC801DF91B6
:101B1000CF911F910F91FF90EF90DF90CF90BF90EA
:101B2000AF909F908F907F906F905F904F900895AF
:101B30000C94AD0C08955058BB27AA270ED075C140
:101B400066D130F06BD120F031F49F3F11F41EF4D8
:101B50005BC10EF4E095E7FB51C1E92F77D180F32B
:101B6000BA17620773078407950718F071F49EF59A
:101B70008FC10EF4E0950B2EBA2FA02D0B01B901E9
:101B800090010C01CA01A0011124FF27591B99F0F3
:101B9000593F50F4503E68F11A16F040A22F232FFF
:101BA000342F4427585FF3CF469537952795A7954F
:101BB000F0405395C9F77EF41F16BA0B620B730BF6
:101BC000840BBAF09150A1F0FF0FBB1F661F771F67
:101BD000881FC2F70EC0BA0F621F731F841F48F41C
:101BE000879577956795B795F7959E3F08F0B3CFA2
:101BF0009395880F08F09927EE0F9795879508958C
:101C0000D9D008F481E008950CD00FC107D140F07D
:101C1000FED030F021F45F3F19F0F0C0511139C10E
:101C2000F3C014D198F39923C9F35523B1F3951B4D
:101C3000550BBB27AA2762177307840738F09F5FED
:101C40005F4F220F331F441FAA1FA9F333D00E2E5C
:101C50003AF0E0E830D091505040E695001CCAF7C9
:101C600029D0FE2F27D0660F771F881FBB1F26178E
:101C700037074807AB07B0E809F0BB0B802DBF0161
:101C8000FF2793585F4F2AF09E3F510568F0B6C07A
:101C900000C15F3FECF3983EDCF38695779567953E
:101CA000B795F7959F5FC9F7880F911D9695879512
:101CB00097F90895E1E0660F771F881FBB1F621731
:101CC00073078407BA0720F0621B730B840BBA0BEF
:101CD000EE1F88F7E095089504D06894B111D9C03B
:101CE0000895BCD088F09F5790F0B92F9927B7512D
:101CF000A0F0D1F0660F771F881F991F1AF0BA95D0
:101D0000C9F712C0B13081F0C3D0B1E00895C0C0AE
:101D1000672F782F8827B85F39F0B93FCCF38695C5
:101D200077956795B395D9F73EF490958095709522
:101D300061957F4F8F4F9F4F0895E89409C097FB9F
:101D40003EF490958095709561957F4F8F4F9F4F92
:101D50009923A9F0F92F96E9BB279395F6958795D6
:101D600077956795B795F111F8CFFAF4BB0F11F499
:101D700060FF1BC06F5F7F4F8F4F9F4F16C0882340
:101D800011F096E911C0772321F09EE8872F762F76
:101D900005C0662371F096E8862F70E060E02AF0B7
:101DA0009A95660F771F881FDAF7880F96958795A3
:101DB00097F90895990F0008550FAA0BE0E8FEEF78
:101DC00016161706E807F907C0F012161306E407FF
:101DD000F50798F0621B730B840B950B39F40A26F8
:101DE00061F0232B242B252B21F408950A2609F4D6
:101DF000A140A6958FEF811D811D089597F99F67DA
:101E000080E870E060E008959FEF80EC0895002482
:101E10000A941616170618060906089500240A944F
:101E200012161306140605060895092E0394000CD5
:101E300011F4882352F0BB0F40F4BF2B11F460FF64
:101E400004C06F5F7F4F8F4F9F4F089557FD90588D
:101E5000440F551F59F05F3F71F04795880F97FB6E
:101E6000991F61F09F3F79F0879508951216130628
:101E70001406551FF2CF4695F1DF08C01616170657
:101E80001806991FF1CF869571056105089408958C
:101E9000E894BB2766277727CB0197F908958ADF57
:101EA00008F48FEF08950EF0AAC0AECF6894A6CFC5
:101EB000D5DFC8F39923D1F3C6F3DF93CF931F93F4
:101EC0000F93FF92C92FDD2788232AF02197660FF1
:101ED000771F881FDAF720E030E040E85FEB9FE3F0
:101EE000883920F0803E30F021968F7725DEE8E6B5
:101EF000F0E003C021DEE5E9F0E08FD08B01BE0108
:101F0000EC01FB2E6F5771097595771F880B990BA4
:101F100016DF28E132E741E35FE316D0AF2D9801E9
:101F2000AE01FF900F911F91CF91DF9116DE7DCF13
:101F30000BD07BCF6CDF28F071DF18F0952309F010
:101F40005DCF62CF1124A5CF81DFA0F3959FD1F3A0
:101F5000950F50E0551F629FF001729FBB27F00D57
:101F6000B11D639FAA27F00DB11DAA1F649F6627AC
:101F7000B00DA11D661F829F2227B00DA11D621FFB
:101F8000739FB00DA11D621F839FA00D611D221FB5
:101F9000749F3327A00D611D231F849F600D211D99
:101FA000822F762F6A2F11249F5750408AF0E1F03C
:101FB00088234AF0EE0FFF1FBB1F661F771F881F85
:101FC00091505040A9F79E3F510570F017CF61CF57
:101FD0005F3FECF3983EDCF3869577956795B79570
:101FE000F795E7959F5FC1F7FE2B880F911D96959A
:101FF000879597F90895DEDE880B990B08959F3F2A
:1020000031F0915020F4879577956795B795880FB3
:10201000911D9695879597F90895DF93CF931F9318
:102020000F93FF92EF92DF927B018C01689405C0C1
:10203000DA2EEF0189DFFE01E894A5912591359113
:1020400045915591AEF3EF0188DDFE019701A8019E
:10205000DA9479F7DF90EF90FF900F911F91CF9175
:10206000DF91089597FB072E16F4009407D077FDB3
:1020700009D00E94871007FC05D03EF49095819509
:102080009F4F0895709561957F4F0895A1E21A2E94
:10209000AA1BBB1BFD010DC0AA1FBB1FEE1FFF1F0C
:1020A000A217B307E407F50720F0A21BB30BE40B5C
:1020B000F50B661F771F881F991F1A9469F76095A3
:1020C0007095809590959B01AC01BD01CF0108955D
:1020D000052E97FB1EF400940E947F1057FD07D039
:1020E0000E94461007FC03D04EF40C947F105095CC
:1020F0004095309521953F4F4F4F5F4F08959095F4
:102100008095709561957F4F8F4F9F4F0895AA1BC3
:10211000BB1B51E107C0AA1FBB1FA617B70710F0D2
:10212000A61BB70B881F991F5A95A9F78095909504
:10213000BC01CD010895EE0FFF1F0590F491E02D35
:062140000994F894FFCFA2
:102146001400140021072107016368616E6765208A
:102156006D6F64653F006D6F6465206368616E67CF
:1021660065642100707265737365640061646A75E5
:1021760073746564002520200043202000080007B2
:102186000006000500000000001B0A970B9D09B61B
:1021960009A809F9090D0A006E616E00696E6600EC
:0621A6006F7666002E00BA
:00000001FF
