:100000000C948F000C94EA060C9411070C94B70022
:100010000C94B7000C94B7000C94B7000C94B70084
:100020000C94B7000C94B7000C94B7000C94B70074
:100030000C94B7000C94B7000C94B7000C94B70064
:100040000C9438070C94B7000C94B7000C94B700CC
:100050000C94B7000C94B7000C94B7000C94B70044
:100060000C94B7000C94B70008000000BE9224491D
:10007000123EABAAAA2ABECDCCCC4C3E00000080DA
:10008000BEABAAAAAA3E00000000BF000000803F4D
:100090000000000000084178D3BB4387D1133D190D
:1000A0000E3CC3BD4282AD2B3E68EC8276BED98F3A
:1000B000E1A93E4C80EFFFBE01C4FF7F3F0000007E
:1000C0000000000000080002010000030407000017
:1000D000000000000000010204081020408001021E
:1000E000040810200102040810200404040404047D
:1000F00004040202020202020303030303030000DA
:100100000000230026002900000000002500280030
:100110002B0000000000240027002A00A90411245D
:100120001FBECFEFD8E0DEBFCDBF11E0A0E0B1E051
:10013000E4EBF8E102C005900D92A231B107D9F7C6
:1001400021E0A2E1B1E001C01D92A634B207E1F7BF
:1001500011E0CEE1D1E004C02297FE010E94540CD0
:10016000CC31D107C9F70E9446090C94580C0C9465
:1001700000000F931F930E94820700911C011091B1
:100180001D0120911E0130911F01601B710B820B1C
:10019000930B683C710581059105B0F080912101B8
:1001A000909122010196909322018093210181E098
:1001B000809320010E94820760931C0170931D01AF
:1001C00080931E0190931F011F910F9108951F931B
:1001D000CF93DF9361E089E00E94D60861E08AE076
:1001E0000E94D60861E08BE00E94D6086FEA70E0BA
:1001F0008BE00E944E08C9E0D1E01881229661E0B0
:10020000812F0E94D60860E0812F0E940F0981E0B3
:10021000C131D80791F762E083E00E94D60861E01F
:1002200082E00E94D60860E082E00E940F098BE223
:1002300091E00E94D10440E050E069EB70E081E081
:10024000DF91CF911F910C94CA068EE480937C00BD
:1002500062E070E080E090E00E94B10780917A0057
:10026000806480937A0080917A0086FDFCCF809133
:1002700078002091790030E0322F2227442737FD83
:100280004095542F282B64EB7BE281E190E00E94A3
:100290001F0CCA01B90108958F929F92AF92BF922D
:1002A000CF92DF92EF92FF920E9425010E945A0A9C
:1002B00020E030E04AE754E40E94BF094B015C01B2
:1002C0008EE00E943108BC01882777FD8095982F29
:1002D0000E945A0A9B01AC01C501B4010E94530B54
:1002E00020E030EC4FE754E40E94BF096B017C0131
:1002F000A50194010E9456099B01AC01C701B601FA
:100300000E94BF0920E030EE42E955EC0E94530BF9
:1003100020E030EE42E955E40E94BF090E94130B31
:100320002CE23BEB44E859E30E94530B22E63BEE00
:100330004BE55BE30E94570920E030E84AE853E4CC
:100340000E9456099B01AC0160E070E080E89FE3E9
:100350000E94BF09FF90EF90DF90CF90BF90AF90C9
:100360009F908F9008956F927F928F929F92AF92FD
:10037000BF92CF92DF92EF92FF920F931F93CF9392
:10038000DF9300D0CDB7DEB73C016B014B01880C89
:10039000991C8C0C9D1C80911201873621F14CF424
:1003A0008236B9F0833629F50BE410E026E930E017
:1003B00017C0823749F08937E1F400E010E024E605
:1003C00030E04FEF50E015C000E010E020E030E0FA
:1003D00007C008EC10E024E630E042E350E009C03A
:1003E00048EC50E006C000E010E028EC30E040E0CF
:1003F00050E0BA0188E029833A830E944E0829819F
:100400003A81B90186E00E944E08B80185E00E9459
:100410004E0800E010E0EE24D7FCE094FE2CAA2465
:1004200097FCA094BA2C061517059CF460E087E0B1
:100430000E940F09C701B6010E94B10761E087E081
:100440000E940F09C501B4010E94B1070F5F1F4F41
:10045000EACF0F900F90DF91CF911F910F91FF90F6
:10046000EF90DF90CF90BF90AF909F908F907F9054
:100470006F90089560E08BE291E00E94830620E097
:1004800030E040E351E40E9457090E94270A70932C
:1004900026016093250140E060E08BE291E00E943C
:1004A000230620E030E040E85FE30E9457090E9405
:1004B000270A70932401609323010E944C016093EA
:1004C0002701709328018093290190932A010895B0
:1004D000CF92DF92EF92FF92CF93DF93C0902701EC
:1004E000D0902801E0902901F0902A0120E030E02E
:1004F00048E452E4C701B6010E94BB09181614F083
:1005000082E621C020E030E048E452E4C701B601B1
:100510000E940A0B181664F420E030E048E552E42B
:10052000C701B6010E94BB09181614F089E70BC079
:1005300020E030E048E552E4C701B6010E940A0B12
:1005400018161CF482E780931201C701B6010E94BD
:10055000270ACAE0D0E0CB01BE010E94E90BCB0123
:1005600064E670E00E94B30168EE73E080E090E022
:100570000E94B107609127017091280180912901A3
:1005800090912A010E94270ACB01BE010E94E90B2B
:1005900064E670E0DF91CF91FF90EF90DF90CF9015
:1005A0000C94B301CF93DF9383E680931201809183
:1005B000020190910301CAE0D0E0BE010E94E90B64
:1005C000CB0164E670E00E94B30168EE73E080E066
:1005D00090E00E94B1078091020190910301BE0159
:1005E0000E94E90B64E670E00E94B30160ED77E0E1
:1005F00080E090E00E94B10780910001909101019C
:10060000BE010E94E90BCB0164E670E00E94B301D9
:1006100068EE73E080E090E00E94B10780910001F5
:1006200090910101BE010E94E90B64E670E0DF9148
:10063000CF910C94B30180911701811102C087E61C
:1006400001C082E78093120168EE73E081E090E0E0
:100650000C94B301CF92DF92EF92FF92C0902701EA
:10066000D0902801E0902901F0902A0120E030E0AC
:1006700048E552E4C701B6010E940A0B18164CF473
:1006800080910201909103018734910514F4019641
:1006900012C020E030E048E352E4C701B6010E94F6
:1006A000BB0918166CF08091020190910301181695
:1006B000190634F4019790930301809302010EC050
:1006C00020E030E048ED51E4C701B6010E94BB09CB
:1006D00087FF04C0109203011092020120912301B0
:1006E0003091240180910001909101012B3131055D
:1006F0003CF440912501509126014234510544F0CB
:100700008B34910514F4019607C02B31310544F464
:10071000181619062CF4019790930101809300019B
:10072000FF90EF90DF90CF900895CF93DF9361E03B
:1007300088E00E940F0966E970E086E00E944E089A
:100740006BE470E085E00E944E0860E087E00E9464
:100750000F09C4EFD1E06AE070E080E090E00E9411
:10076000B1072197C1F761E087E00E940F0960E2BD
:1007700073E080E090E00E94B1078091200188231F
:10078000F9F080912101909122010797C9F480919D
:10079000170191E0892780931701811102C087E634
:1007A00001C082E78093120162E370E082E090E092
:1007B0000E94B30110922001109222011092210197
:1007C000DF91CF910895CF93DF938091200188230B
:1007D00009F442C0CCE2D1E06AE070E080E090E051
:1007E0000E94B1072197C1F78091210190912201C8
:1007F00083309105A1F044F48130910569F00297AE
:10080000E1F40E94D20222C08430910559F005978C
:10081000A1F40E9495031AC00E94680217C00E94AA
:100820001B0314C061E082E10E940F0968EB7BE0CA
:1008300080E090E00E94B10709C082E78093120136
:1008400064EF71E083E090E00E94B3011092220116
:100850001092210110922001DF91CF9108950F9302
:100860001F93CF930E94E3030E943A020E948207E3
:10087000009118011091190120911A0130911B016A
:10088000601B710B820B930B603C77428940910592
:1008900060F00E94820760931801709319018093A1
:1008A0001A0190931B010E942A03209102013091AA
:1008B0000301CFEFC29FC001C39F900D112404E636
:1008C00010E0B8010E94E90B89E00E944E082091D7
:1008D000000130910101C29FC001C39F900D1124FE
:1008E000B8010E94E90B8AE00E944E08809117012E
:1008F000811105C080E097E9A9E4B1E004C080E07F
:100900009EE2A3E9B2E08093130190931401A093B7
:100910001501B09316010E94820720E03CE546E2F3
:1009200055E00E94FD0B00911301109114012091DC
:10093000150130911601061717072807390710F41B
:1009400061E001C060E082E1CF911F910F910C94B2
:100950000F0926E04BE06FE08BE291E00C94B004CD
:10096000DC0115966C93159716964C93169770E0CC
:10097000FB01EA52FF4FE4911796EC931797FB01A6
:10098000E651FF4F649118966C93189740E85EE328
:1009900060E070E01D964D935D936D937C9350974E
:1009A0000895CF93DF93EC0162E08D810E94D60819
:1009B00040E358EF6FEF7FEF49875A876B877C875B
:1009C000DF91CF910895AF92BF92CF92DF92EF92D5
:1009D000FF920F931F93CF93DF93EC01AF806623B9
:1009E00011F0BA2C01C0B12CA885B0E0AA0FBB1F32
:1009F000A250BF4F40E050E0BA01FD0185919491B3
:100A0000FC0180818A218B1112C08A019B010F5F3A
:100A10001F4F2F4F3F4FCD84DE84EF84F8884C1555
:100A20005D056E057F0538F4B901A801E6CF342FC6
:100A3000252FCB0104C030E020E080E090E0632F60
:100A4000722FDF91CF911F910F91FF90EF90DF9068
:100A5000CF90BF90AF900895CF92DF92EF92FF9228
:100A60000F931F93CF93DF93CDB7DEB7C054D14020
:100A70000FB6F894DEBF0FBECDBF8C01F62E0E94DC
:100A80008207F11016C0F801C184D284E384F48493
:100A90009B01AC012C193D094E095F0969017A01DE
:100AA00030EDC31637E0D306E104F10410F4818978
:100AB000BAC0F80161877287838794871482138292
:100AC00012821182108261E085810E940F096AEF13
:100AD00070E080E090E00E94B10761E0F80185815C
:100AE0000E94D60860E0F80185810E940F0964E148
:100AF00070E080E090E00E94B107F89461E0F801B6
:100B000085810E940F0988E290E00E94EB0762E075
:100B1000F80185810E94D6088AE090E00E94EB07E8
:100B200060E0C8010E94E304672B682B692B41F049
:100B300061E0C8010E94E304672B682B692B21F454
:100B4000F801118A78946EC06E01FFEBCF1AFEEFA8
:100B5000DF0A9E012F5F3F4F790160E0C8010E94CC
:100B6000E304F701608371838283938361E0C801AA
:100B70000E94E304F7016483758386839783F8E01A
:100B8000EF0EF11CEC14FD0441F778949E012F5FE9
:100B90003F4F790120E030E0F701408151816281CF
:100BA000738184819581A681B781411551056105C5
:100BB0007105B1F10097A105B10591F1F901F59524
:100BC000E795F595E795F595E795E00FF11FD0804E
:100BD000DD0C481759076A077B0710F0D08203C065
:100BE0008D2D816080832F5F3F4FF8E0EF0EF11C69
:100BF0002832310589F6F801248130E04081818175
:100C000090E0840F911D4281840F911D4381840FD8
:100C1000911D99272817390719F481E0818B03C0AA
:100C2000F801118A80E0C05CDE4F0FB6F894DEBF99
:100C30000FBECDBFDF91CF911F910F91FF90EF902D
:100C4000DF90CF900895CF92DF92EF92FF920F93B3
:100C50001F93CF93DF93EC01162F642F0E942C0576
:100C6000882309F443C08E818B3031F008F43EC0F4
:100C70008551823040F03AC06A8170E080E090E0B7
:100C80000E94580A24C00A81602F6F7770E080E0CC
:100C900090E00E945A0A20E030E040E853E40E94CD
:100CA000530B6B017C016B8170E080E090E00E944F
:100CB0005A0A9B01AC01C701B6010E9457092DECED
:100CC0003CEC4CEC5DE30E94530B07FD9058112364
:100CD00089F026E636E646EE5FE30E94530B20E0FD
:100CE00030E040E052E40E94570904C060E070E048
:100CF00080EC9FE7DF91CF911F910F91FF90EF90D4
:100D0000DF90CF900895CF92DF92EF92FF92CF9332
:100D1000DF93EC0160E00E942C05882379F18E813D
:100D20008B3029F158F18551823040F5688170E0AF
:100D300080E090E00E94580A20E030E040E853E470
:100D40000E94530B6B017C01698170E080E090E0B0
:100D50000E945A0A9B01AC01C701B6010E945709C3
:100D60002DEC3CEC4CEC5DE30E94530B0BC0688116
:100D700070E080E090E00E94580A04C060E070E0FB
:100D800080EC9FE7DF91CF91FF90EF90DF90CF90C5
:100D9000089508958230E8F4E82FF0E0EE0FFF1F89
:100DA000EC5FFE4F71836083813041F08091690078
:100DB0008C7F842B80936900E89A08958091690064
:100DC000440F551F440F551F837F842B8093690068
:100DD000E99A08951F920F920FB60F9211242F9344
:100DE0003F934F935F936F937F938F939F93AF93B3
:100DF000BF93EF93FF93E0910401F09105010995F2
:100E0000FF91EF91BF91AF919F918F917F916F91E2
:100E10005F914F913F912F910F900FBE0F901F90B8
:100E200018951F920F920FB60F9211242F933F9394
:100E30004F935F936F937F938F939F93AF93BF93E2
:100E4000EF93FF93E0910601F09107010995FF915F
:100E5000EF91BF91AF919F918F917F916F915F9132
:100E60004F913F912F910F900FBE0F901F901895AB
:100E70001F920F920FB60F9211242F933F938F93CF
:100E80009F93AF93BF9380913E0190913F01A091BA
:100E90004001B091410130913D0123E0230F2D37F6
:100EA00020F40196A11DB11D05C026E8230F02966E
:100EB000A11DB11D20933D0180933E0190933F0100
:100EC000A0934001B0934101809142019091430170
:100ED000A0914401B09145010196A11DB11D8093DF
:100EE000420190934301A0934401B0934501BF9107
:100EF000AF919F918F913F912F910F900FBE0F90C7
:100F00001F9018952FB7F89460913E0170913F01A2
:100F100080914001909141012FBF08953FB7F8940F
:100F20008091420190914301A0914401B09145010B
:100F300026B5A89B05C02F3F19F00196A11DB11D34
:100F40003FBF6627782F892F9A2F620F711D811D51
:100F5000911D42E0660F771F881F991F4A95D1F7B0
:100F600008958F929F92AF92BF92CF92DF92EF92AD
:100F7000FF926B017C010E948E074B015C01C11442
:100F8000D104E104F104F1F00E9455090E948E079A
:100F9000681979098A099B09683E734081059105A2
:100FA00070F321E0C21AD108E108F10888EE880E3A
:100FB00083E0981EA11CB11CC114D104E104F1040A
:100FC00029F7DDCFFF90EF90DF90CF90BF90AF90EB
:100FD0009F908F9008958230910538F0880F991F67
:100FE000880F991F05970197F1F70895789484B5B4
:100FF000826084BD84B5816084BD85B5826085BD15
:1010000085B5816085BDEEE6F0E0808181608083FA
:10101000E1E8F0E0108280818260808380818160DD
:101020008083E0E8F0E0808181608083E1EBF0E0A4
:10103000808184608083E0EBF0E080818160808348
:10104000EAE7F0E080818460808380818260808331
:101050008081816080838081806880831092C1005C
:1010600008958E3008F08E5087702091080190E42A
:10107000299F90011124822B80937C0080917A001B
:10108000806480937A0080917A0086FDFCCF809105
:1010900078002091790090E0922B08951F93CF93D0
:1010A000DF93182FEB0161E00E94D608209711F41E
:1010B00060E004C0CF3FD10539F461E0812FDF91BA
:1010C000CF911F910C940F09E12FF0E0EE53FF4FE9
:1010D000E491E330F9F048F4E130B9F0E230A1F501
:1010E00084B5806284BDC8BD34C0E730E9F0E83023
:1010F00019F1E43049F5809180008062809380008E
:10110000D0938B00C0938A0024C084B5806884BDCE
:10111000C7BD1FC080918000806880938000D093FD
:101120008900C093880015C08091B00080688093CA
:10113000B000C093B3000DC08091B0008062809376
:10114000B000C093B40005C0C038D1050CF0B5CFD5
:10115000AFCFDF91CF911F910895833081F028F4B4
:10116000813099F08230A1F008958730A9F088305D
:10117000B9F08430D1F4809180008F7D03C08091DC
:1011800080008F7780938000089584B58F7702C0A8
:1011900084B58F7D84BD08958091B0008F7703C0A2
:1011A0008091B0008F7D8093B0000895CF93DF933E
:1011B00090E0FC01EA52FF4F2491FC01E651FF4F01
:1011C0008491882349F190E0880F991FFC01EE5E1D
:1011D000FE4FA591B491885F9E4FFC01C591D491BB
:1011E0009FB7611108C0F8948C91209582238C934D
:1011F000888182230AC0623051F4F8948C91322F96
:10120000309583238C938881822B888304C0F89443
:101210008C91822B8C939FBFDF91CF9108950F9378
:101220001F93CF93DF931F92CDB7DEB7282F30E007
:10123000F901EE53FF4F8491F901EA52FF4F1491E7
:10124000F901E651FF4F04910023C9F0882321F0F2
:1012500069830E94AD086981E02FF0E0EE0FFF1F67
:10126000E85FFE4FA591B4919FB7F8948C916111FE
:1012700003C01095812301C0812B8C939FBF0F90D9
:10128000DF91CF911F910F91089508950E94F60765
:101290000E9445090E94E700C0E0D0E00E942F04B0
:1012A0002097E1F30E940000F9CF08955058BB2722
:1012B000AA270ED075C166D130F06BD120F031F481
:1012C0009F3F11F41EF45BC10EF4E095E7FB51C1A2
:1012D000E92F77D180F3BA17620773078407950760
:1012E00018F071F49EF58FC10EF4E0950B2EBA2F15
:1012F000A02D0B01B90190010C01CA01A00111241C
:10130000FF27591B99F0593F50F4503E68F11A16C7
:10131000F040A22F232F342F4427585FF3CF469558
:1013200037952795A795F0405395C9F77EF41F167A
:10133000BA0B620B730B840BBAF09150A1F0FF0F44
:10134000BB1F661F771F881FC2F70EC0BA0F621F30
:10135000731F841F48F4879577956795B795F79520
:101360009E3F08F0B3CF9395880F08F09927EE0FB2
:10137000979587950895D9D008F481E008950CD009
:101380000FC107D140F0FED030F021F45F3F19F0DB
:10139000F0C0511139C1F3C014D198F39923C9F3A6
:1013A0005523B1F3951B550BBB27AA27621773076B
:1013B000840738F09F5F5F4F220F331F441FAA1F1F
:1013C000A9F333D00E2E3AF0E0E830D091505040DF
:1013D000E695001CCAF729D0FE2F27D0660F771F8D
:1013E000881FBB1F261737074807AB07B0E809F06F
:1013F000BB0B802DBF01FF2793585F4F2AF09E3F04
:10140000510568F0B6C000C15F3FECF3983EDCF3D5
:10141000869577956795B795F7959F5FC9F7880F7C
:10142000911D9695879597F90895E1E0660F771FCE
:10143000881FBB1F621773078407BA0720F0621B5F
:10144000730B840BBA0BEE1F88F7E095089504D058
:101450006894B111D9C00895BCD088F09F5790F01E
:10146000B92F9927B751A0F0D1F0660F771F881FC9
:10147000991F1AF0BA95C9F712C0B13081F0C3D0E4
:10148000B1E00895C0C0672F782F8827B85F39F082
:10149000B93FCCF3869577956795B395D9F73EF428
:1014A00090958095709561957F4F8F4F9F4F0895D0
:1014B000E89409C097FB3EF49095809570956195EE
:1014C0007F4F8F4F9F4F9923A9F0F92F96E9BB27A4
:1014D0009395F695879577956795B795F111F8CF20
:1014E000FAF4BB0F11F460FF1BC06F5F7F4F8F4F8B
:1014F0009F4F16C0882311F096E911C0772321F081
:101500009EE8872F762F05C0662371F096E8862F18
:1015100070E060E02AF09A95660F771F881FDAF76F
:10152000880F9695879597F90895990F0008550F9C
:10153000AA0BE0E8FEEF16161706E807F907C0F059
:1015400012161306E407F50798F0621B730B840B61
:10155000950B39F40A2661F0232B242B252B21F43B
:1015600008950A2609F4A140A6958FEF811D811DDB
:10157000089597F99F6780E870E060E008959FEF15
:1015800080EC089500240A9416161706180609061A
:10159000089500240A9412161306140605060895E9
:1015A000092E0394000C11F4882352F0BB0F40F471
:1015B000BF2B11F460FF04C06F5F7F4F8F4F9F4FB1
:1015C000089557FD9058440F551F59F05F3F71F033
:1015D0004795880F97FB991F61F09F3F79F087959A
:1015E0000895121613061406551FF2CF4695F1DF23
:1015F00008C0161617061806991FF1CF86957105B3
:10160000610508940895E894BB2766277727CB01E6
:1016100097F908958ADF08F48FEF08950EF0A6C0B9
:10162000AECF6894A6CFD5DFC8F39923D1F3C6F324
:10163000DF93CF931F930F93FF92C92FDD2788234A
:101640002AF02197660F771F881FDAF720E030E035
:1016500040E85FEB9FE3883920F0803E30F0219630
:101660008F7725DEE8E6F0E003C021DEE5E9F0E073
:101670008BD08B01BE01EC01FB2E6F577109759564
:10168000771F880B990B16DF28E132E741E35FE310
:1016900016D0AF2D9801AE01FF900F911F91CF9101
:1016A000DF9116DE7DCF0BD07BCF6CDF28F071DFB2
:1016B00018F0952309F05DCF62CF1124A5CF81DF0B
:1016C000A0F3959FD1F3950F50E0551F629FF00155
:1016D000729FBB27F00DB11D639FAA27F00DB11DAE
:1016E000AA1F649F6627B00DA11D661F829F222737
:1016F000B00DA11D621F739FB00DA11D621F839FBE
:10170000A00D611D221F749F3327A00D611D231F93
:10171000849F600D211D822F762F6A2F11249F57E1
:1017200050408AF0E1F088234AF0EE0FFF1FBB1F04
:10173000661F771F881F91505040A9F79E3F5105A3
:1017400070F017CF61CF5F3FECF3983EDCF38695E6
:1017500077956795B795F795E7959F5FC1F7FE2B4E
:10176000880F911D9695879597F908959F3F31F0C1
:10177000915020F4879577956795B795880F911DBF
:101780009695879597F90895DF93CF931F930F93BD
:10179000FF92EF92DF927B018C01689405C0DA2EF4
:1017A000EF018DDFFE01E894A591259135914591DA
:1017B0005591AEF3EF018CDDFE019701A801DA949B
:1017C00079F7DF90EF90FF900F911F91CF91DF910C
:1017D000089597FB072E16F4009407D077FD09D0E3
:1017E0000E943E0C07FC05D03EF4909581959F4FDA
:1017F0000895709561957F4F0895A1E21A2EAA1B56
:10180000BB1BFD010DC0AA1FBB1FEE1FFF1FA217B0
:10181000B307E407F50720F0A21BB30BE40BF50BAD
:10182000661F771F881F991F1A9469F76095709536
:10183000809590959B01AC01BD01CF010895052EC7
:1018400097FB1EF400940E94360C57FD07D00E94AF
:10185000FD0B07FC03D04EF40C94360C50954095CC
:10186000309521953F4F4F4F5F4F0895909580954C
:10187000709561957F4F8F4F9F4F0895AA1BBB1B9B
:1018800051E107C0AA1FBB1FA617B70710F0A61B80
:10189000B70B881F991F5A95A9F780959095BC01A1
:1018A000CD010895EE0FFF1F0590F491E02D0994EE
:0418B000F894FFCFDA
:1018B40014001400C906C906010800070006000543
:0218C400000022
:00000001FF
